{
    "_format": "hh-sol-artifact-1",
    "contractName": "RestaurantDApp",
    "sourceName": "contracts/RestaurantDapp.sol",
    "abi": [
        {
            "inputs": [
                {
                    "internalType": "string",
                    "name": "name",
                    "type": "string"
                },
                {
                    "internalType": "string",
                    "name": "symbol",
                    "type": "string"
                },
                {
                    "internalType": "string",
                    "name": "_baseURI",
                    "type": "string"
                },
                {
                    "internalType": "address",
                    "name": "_owner",
                    "type": "address"
                }
            ],
            "stateMutability": "nonpayable",
            "type": "constructor"
        },
        {
            "inputs": [
                {
                    "internalType": "address",
                    "name": "sender",
                    "type": "address"
                },
                {
                    "internalType": "uint256",
                    "name": "tokenId",
                    "type": "uint256"
                },
                {
                    "internalType": "address",
                    "name": "owner",
                    "type": "address"
                }
            ],
            "name": "ERC721IncorrectOwner",
            "type": "error"
        },
        {
            "inputs": [
                {
                    "internalType": "address",
                    "name": "operator",
                    "type": "address"
                },
                {
                    "internalType": "uint256",
                    "name": "tokenId",
                    "type": "uint256"
                }
            ],
            "name": "ERC721InsufficientApproval",
            "type": "error"
        },
        {
            "inputs": [
                {
                    "internalType": "address",
                    "name": "approver",
                    "type": "address"
                }
            ],
            "name": "ERC721InvalidApprover",
            "type": "error"
        },
        {
            "inputs": [
                {
                    "internalType": "address",
                    "name": "operator",
                    "type": "address"
                }
            ],
            "name": "ERC721InvalidOperator",
            "type": "error"
        },
        {
            "inputs": [
                {
                    "internalType": "address",
                    "name": "owner",
                    "type": "address"
                }
            ],
            "name": "ERC721InvalidOwner",
            "type": "error"
        },
        {
            "inputs": [
                {
                    "internalType": "address",
                    "name": "receiver",
                    "type": "address"
                }
            ],
            "name": "ERC721InvalidReceiver",
            "type": "error"
        },
        {
            "inputs": [
                {
                    "internalType": "address",
                    "name": "sender",
                    "type": "address"
                }
            ],
            "name": "ERC721InvalidSender",
            "type": "error"
        },
        {
            "inputs": [
                {
                    "internalType": "uint256",
                    "name": "tokenId",
                    "type": "uint256"
                }
            ],
            "name": "ERC721NonexistentToken",
            "type": "error"
        },
        {
            "inputs": [
                {
                    "internalType": "address",
                    "name": "owner",
                    "type": "address"
                }
            ],
            "name": "OwnableInvalidOwner",
            "type": "error"
        },
        {
            "inputs": [
                {
                    "internalType": "address",
                    "name": "account",
                    "type": "address"
                }
            ],
            "name": "OwnableUnauthorizedAccount",
            "type": "error"
        },
        {
            "anonymous": false,
            "inputs": [
                {
                    "indexed": true,
                    "internalType": "address",
                    "name": "owner",
                    "type": "address"
                },
                {
                    "indexed": true,
                    "internalType": "address",
                    "name": "approved",
                    "type": "address"
                },
                {
                    "indexed": true,
                    "internalType": "uint256",
                    "name": "tokenId",
                    "type": "uint256"
                }
            ],
            "name": "Approval",
            "type": "event"
        },
        {
            "anonymous": false,
            "inputs": [
                {
                    "indexed": true,
                    "internalType": "address",
                    "name": "owner",
                    "type": "address"
                },
                {
                    "indexed": true,
                    "internalType": "address",
                    "name": "operator",
                    "type": "address"
                },
                {
                    "indexed": false,
                    "internalType": "bool",
                    "name": "approved",
                    "type": "bool"
                }
            ],
            "name": "ApprovalForAll",
            "type": "event"
        },
        {
            "anonymous": false,
            "inputs": [
                {
                    "indexed": true,
                    "internalType": "address",
                    "name": "customer",
                    "type": "address"
                },
                {
                    "indexed": true,
                    "internalType": "uint256",
                    "name": "tokenId",
                    "type": "uint256"
                }
            ],
            "name": "MilestoneNFTIssued",
            "type": "event"
        },
        {
            "anonymous": false,
            "inputs": [
                {
                    "indexed": true,
                    "internalType": "address",
                    "name": "previousOwner",
                    "type": "address"
                },
                {
                    "indexed": true,
                    "internalType": "address",
                    "name": "newOwner",
                    "type": "address"
                }
            ],
            "name": "OwnershipTransferred",
            "type": "event"
        },
        {
            "anonymous": false,
            "inputs": [
                {
                    "indexed": true,
                    "internalType": "address",
                    "name": "from",
                    "type": "address"
                },
                {
                    "indexed": true,
                    "internalType": "address",
                    "name": "to",
                    "type": "address"
                },
                {
                    "indexed": true,
                    "internalType": "uint256",
                    "name": "tokenId",
                    "type": "uint256"
                }
            ],
            "name": "Transfer",
            "type": "event"
        },
        {
            "inputs": [
                {
                    "internalType": "address",
                    "name": "to",
                    "type": "address"
                },
                {
                    "internalType": "uint256",
                    "name": "tokenId",
                    "type": "uint256"
                }
            ],
            "name": "approve",
            "outputs": [],
            "stateMutability": "nonpayable",
            "type": "function"
        },
        {
            "inputs": [
                {
                    "internalType": "address",
                    "name": "owner",
                    "type": "address"
                }
            ],
            "name": "balanceOf",
            "outputs": [
                {
                    "internalType": "uint256",
                    "name": "",
                    "type": "uint256"
                }
            ],
            "stateMutability": "view",
            "type": "function"
        },
        {
            "inputs": [],
            "name": "baseURI",
            "outputs": [
                {
                    "internalType": "string",
                    "name": "",
                    "type": "string"
                }
            ],
            "stateMutability": "view",
            "type": "function"
        },
        {
            "inputs": [
                {
                    "internalType": "uint256",
                    "name": "tokenId",
                    "type": "uint256"
                }
            ],
            "name": "getApproved",
            "outputs": [
                {
                    "internalType": "address",
                    "name": "",
                    "type": "address"
                }
            ],
            "stateMutability": "view",
            "type": "function"
        },
        {
            "inputs": [
                {
                    "internalType": "address",
                    "name": "",
                    "type": "address"
                }
            ],
            "name": "hasReceivedNFT",
            "outputs": [
                {
                    "internalType": "bool",
                    "name": "",
                    "type": "bool"
                }
            ],
            "stateMutability": "view",
            "type": "function"
        },
        {
            "inputs": [
                {
                    "internalType": "address",
                    "name": "owner",
                    "type": "address"
                },
                {
                    "internalType": "address",
                    "name": "operator",
                    "type": "address"
                }
            ],
            "name": "isApprovedForAll",
            "outputs": [
                {
                    "internalType": "bool",
                    "name": "",
                    "type": "bool"
                }
            ],
            "stateMutability": "view",
            "type": "function"
        },
        {
            "inputs": [],
            "name": "name",
            "outputs": [
                {
                    "internalType": "string",
                    "name": "",
                    "type": "string"
                }
            ],
            "stateMutability": "view",
            "type": "function"
        },
        {
            "inputs": [],
            "name": "nftCounter",
            "outputs": [
                {
                    "internalType": "uint256",
                    "name": "",
                    "type": "uint256"
                }
            ],
            "stateMutability": "view",
            "type": "function"
        },
        {
            "inputs": [
                {
                    "internalType": "address",
                    "name": "",
                    "type": "address"
                }
            ],
            "name": "orderCount",
            "outputs": [
                {
                    "internalType": "uint256",
                    "name": "",
                    "type": "uint256"
                }
            ],
            "stateMutability": "view",
            "type": "function"
        },
        {
            "inputs": [],
            "name": "owner",
            "outputs": [
                {
                    "internalType": "address",
                    "name": "",
                    "type": "address"
                }
            ],
            "stateMutability": "view",
            "type": "function"
        },
        {
            "inputs": [
                {
                    "internalType": "uint256",
                    "name": "tokenId",
                    "type": "uint256"
                }
            ],
            "name": "ownerOf",
            "outputs": [
                {
                    "internalType": "address",
                    "name": "",
                    "type": "address"
                }
            ],
            "stateMutability": "view",
            "type": "function"
        },
        {
            "inputs": [],
            "name": "placeOrder",
            "outputs": [],
            "stateMutability": "nonpayable",
            "type": "function"
        },
        {
            "inputs": [],
            "name": "renounceOwnership",
            "outputs": [],
            "stateMutability": "nonpayable",
            "type": "function"
        },
        {
            "inputs": [
                {
                    "internalType": "address",
                    "name": "from",
                    "type": "address"
                },
                {
                    "internalType": "address",
                    "name": "to",
                    "type": "address"
                },
                {
                    "internalType": "uint256",
                    "name": "tokenId",
                    "type": "uint256"
                }
            ],
            "name": "safeTransferFrom",
            "outputs": [],
            "stateMutability": "nonpayable",
            "type": "function"
        },
        {
            "inputs": [
                {
                    "internalType": "address",
                    "name": "from",
                    "type": "address"
                },
                {
                    "internalType": "address",
                    "name": "to",
                    "type": "address"
                },
                {
                    "internalType": "uint256",
                    "name": "tokenId",
                    "type": "uint256"
                },
                {
                    "internalType": "bytes",
                    "name": "data",
                    "type": "bytes"
                }
            ],
            "name": "safeTransferFrom",
            "outputs": [],
            "stateMutability": "nonpayable",
            "type": "function"
        },
        {
            "inputs": [
                {
                    "internalType": "address",
                    "name": "operator",
                    "type": "address"
                },
                {
                    "internalType": "bool",
                    "name": "approved",
                    "type": "bool"
                }
            ],
            "name": "setApprovalForAll",
            "outputs": [],
            "stateMutability": "nonpayable",
            "type": "function"
        },
        {
            "inputs": [
                {
                    "internalType": "string",
                    "name": "_baseURI",
                    "type": "string"
                }
            ],
            "name": "setBaseURI",
            "outputs": [],
            "stateMutability": "nonpayable",
            "type": "function"
        },
        {
            "inputs": [
                {
                    "internalType": "bytes4",
                    "name": "interfaceId",
                    "type": "bytes4"
                }
            ],
            "name": "supportsInterface",
            "outputs": [
                {
                    "internalType": "bool",
                    "name": "",
                    "type": "bool"
                }
            ],
            "stateMutability": "view",
            "type": "function"
        },
        {
            "inputs": [],
            "name": "symbol",
            "outputs": [
                {
                    "internalType": "string",
                    "name": "",
                    "type": "string"
                }
            ],
            "stateMutability": "view",
            "type": "function"
        },
        {
            "inputs": [
                {
                    "internalType": "uint256",
                    "name": "tokenId",
                    "type": "uint256"
                }
            ],
            "name": "tokenURI",
            "outputs": [
                {
                    "internalType": "string",
                    "name": "",
                    "type": "string"
                }
            ],
            "stateMutability": "view",
            "type": "function"
        },
        {
            "inputs": [
                {
                    "internalType": "address",
                    "name": "from",
                    "type": "address"
                },
                {
                    "internalType": "address",
                    "name": "to",
                    "type": "address"
                },
                {
                    "internalType": "uint256",
                    "name": "tokenId",
                    "type": "uint256"
                }
            ],
            "name": "transferFrom",
            "outputs": [],
            "stateMutability": "nonpayable",
            "type": "function"
        },
        {
            "inputs": [
                {
                    "internalType": "address",
                    "name": "newOwner",
                    "type": "address"
                }
            ],
            "name": "transferOwnership",
            "outputs": [],
            "stateMutability": "nonpayable",
            "type": "function"
        }
    ],
    "bytecode": "0x60806040523480156200001157600080fd5b506040516200302e3803806200302e8339818101604052810190620000379190620003c1565b80848481600090816200004b9190620006db565b5080600190816200005d9190620006db565b505050600073ffffffffffffffffffffffffffffffffffffffff168173ffffffffffffffffffffffffffffffffffffffff1603620000d55760006040517f1e4fbdf7000000000000000000000000000000000000000000000000000000008152600401620000cc9190620007d3565b60405180910390fd5b620000e6816200010360201b60201c565b5081600a9081620000f89190620006db565b5050505050620007f0565b6000600660009054906101000a900473ffffffffffffffffffffffffffffffffffffffff16905081600660006101000a81548173ffffffffffffffffffffffffffffffffffffffff021916908373ffffffffffffffffffffffffffffffffffffffff1602179055508173ffffffffffffffffffffffffffffffffffffffff168173ffffffffffffffffffffffffffffffffffffffff167f8be0079c531659141344cd1fd0a4f28419497f9722a3daafe3b4186f6b6457e060405160405180910390a35050565b6000604051905090565b600080fd5b600080fd5b600080fd5b600080fd5b6000601f19601f8301169050919050565b7f4e487b7100000000000000000000000000000000000000000000000000000000600052604160045260246000fd5b6200023282620001e7565b810181811067ffffffffffffffff82111715620002545762000253620001f8565b5b80604052505050565b600062000269620001c9565b905062000277828262000227565b919050565b600067ffffffffffffffff8211156200029a5762000299620001f8565b5b620002a582620001e7565b9050602081019050919050565b60005b83811015620002d2578082015181840152602081019050620002b5565b60008484015250505050565b6000620002f5620002ef846200027c565b6200025d565b905082815260208101848484011115620003145762000313620001e2565b5b62000321848285620002b2565b509392505050565b600082601f830112620003415762000340620001dd565b5b815162000353848260208601620002de565b91505092915050565b600073ffffffffffffffffffffffffffffffffffffffff82169050919050565b600062000389826200035c565b9050919050565b6200039b816200037c565b8114620003a757600080fd5b50565b600081519050620003bb8162000390565b92915050565b60008060008060808587031215620003de57620003dd620001d3565b5b600085015167ffffffffffffffff811115620003ff57620003fe620001d8565b5b6200040d8782880162000329565b945050602085015167ffffffffffffffff811115620004315762000430620001d8565b5b6200043f8782880162000329565b935050604085015167ffffffffffffffff811115620004635762000462620001d8565b5b620004718782880162000329565b92505060606200048487828801620003aa565b91505092959194509250565b600081519050919050565b7f4e487b7100000000000000000000000000000000000000000000000000000000600052602260045260246000fd5b60006002820490506001821680620004e357607f821691505b602082108103620004f957620004f86200049b565b5b50919050565b60008190508160005260206000209050919050565b60006020601f8301049050919050565b600082821b905092915050565b600060088302620005637fffffffffffffffffffffffffffffffffffffffffffffffffffffffffffffffff8262000524565b6200056f868362000524565b95508019841693508086168417925050509392505050565b6000819050919050565b6000819050919050565b6000620005bc620005b6620005b08462000587565b62000591565b62000587565b9050919050565b6000819050919050565b620005d8836200059b565b620005f0620005e782620005c3565b84845462000531565b825550505050565b600090565b62000607620005f8565b62000614818484620005cd565b505050565b5b818110156200063c5762000630600082620005fd565b6001810190506200061a565b5050565b601f8211156200068b576200065581620004ff565b620006608462000514565b8101602085101562000670578190505b620006886200067f8562000514565b83018262000619565b50505b505050565b600082821c905092915050565b6000620006b06000198460080262000690565b1980831691505092915050565b6000620006cb83836200069d565b9150826002028217905092915050565b620006e68262000490565b67ffffffffffffffff811115620007025762000701620001f8565b5b6200070e8254620004ca565b6200071b82828562000640565b600060209050601f8311600181146200075357600084156200073e578287015190505b6200074a8582620006bd565b865550620007ba565b601f1984166200076386620004ff565b60005b828110156200078d5784890151825560018201915060208501945060208101905062000766565b86831015620007ad5784890151620007a9601f8916826200069d565b8355505b6001600288020188555050505b505050505050565b620007cd816200037c565b82525050565b6000602082019050620007ea6000830184620007c2565b92915050565b61282e80620008006000396000f3fe608060405234801561001057600080fd5b50600436106101425760003560e01c8063713d856b116100b8578063b88d4fde1161007c578063b88d4fde14610375578063c87b56dd14610391578063e574609e146103c1578063e985e9c5146103df578063f2fde38b1461040f578063f5c609e01461042b57610142565b8063713d856b146102e3578063715018a6146103135780638da5cb5b1461031d57806395d89b411461033b578063a22cb4651461035957610142565b806342842e0e1161010a57806342842e0e146101fd57806355f804b3146102195780635e8f07fb146102355780636352211e146102655780636c0360eb1461029557806370a08231146102b357610142565b806301ffc9a71461014757806306fdde0314610177578063081812fc14610195578063095ea7b3146101c557806323b872dd146101e1575b600080fd5b610161600480360381019061015c9190611cad565b610435565b60405161016e9190611cf5565b60405180910390f35b61017f610517565b60405161018c9190611da0565b60405180910390f35b6101af60048036038101906101aa9190611df8565b6105a9565b6040516101bc9190611e66565b60405180910390f35b6101df60048036038101906101da9190611ead565b6105c5565b005b6101fb60048036038101906101f69190611eed565b6105db565b005b61021760048036038101906102129190611eed565b6106dd565b005b610233600480360381019061022e9190612075565b6106fd565b005b61024f600480360381019061024a91906120be565b610718565b60405161025c9190611cf5565b60405180910390f35b61027f600480360381019061027a9190611df8565b610738565b60405161028c9190611e66565b60405180910390f35b61029d61074a565b6040516102aa9190611da0565b60405180910390f35b6102cd60048036038101906102c891906120be565b6107d8565b6040516102da91906120fa565b60405180910390f35b6102fd60048036038101906102f891906120be565b610892565b60405161030a91906120fa565b60405180910390f35b61031b6108aa565b005b6103256108be565b6040516103329190611e66565b60405180910390f35b6103436108e8565b6040516103509190611da0565b60405180910390f35b610373600480360381019061036e9190612141565b61097a565b005b61038f600480360381019061038a9190612222565b610990565b005b6103ab60048036038101906103a69190611df8565b6109ad565b6040516103b89190611da0565b60405180910390f35b6103c9610a16565b6040516103d691906120fa565b60405180910390f35b6103f960048036038101906103f491906122a5565b610a1c565b6040516104069190611cf5565b60405180910390f35b610429600480360381019061042491906120be565b610ab0565b005b610433610b36565b005b60007f80ac58cd000000000000000000000000000000000000000000000000000000007bffffffffffffffffffffffffffffffffffffffffffffffffffffffff1916827bffffffffffffffffffffffffffffffffffffffffffffffffffffffff1916148061050057507f5b5e139f000000000000000000000000000000000000000000000000000000007bffffffffffffffffffffffffffffffffffffffffffffffffffffffff1916827bffffffffffffffffffffffffffffffffffffffffffffffffffffffff1916145b80610510575061050f82610c37565b5b9050919050565b60606000805461052690612314565b80601f016020809104026020016040519081016040528092919081815260200182805461055290612314565b801561059f5780601f106105745761010080835404028352916020019161059f565b820191906000526020600020905b81548152906001019060200180831161058257829003601f168201915b5050505050905090565b60006105b482610ca1565b506105be82610d29565b9050919050565b6105d782826105d2610d66565b610d6e565b5050565b600073ffffffffffffffffffffffffffffffffffffffff168273ffffffffffffffffffffffffffffffffffffffff160361064d5760006040517f64a0ae920000000000000000000000000000000000000000000000000000000081526004016106449190611e66565b60405180910390fd5b6000610661838361065c610d66565b610d80565b90508373ffffffffffffffffffffffffffffffffffffffff168173ffffffffffffffffffffffffffffffffffffffff16146106d7578382826040517f64283d7b0000000000000000000000000000000000000000000000000000000081526004016106ce93929190612345565b60405180910390fd5b50505050565b6106f883838360405180602001604052806000815250610990565b505050565b610705610f9a565b80600a90816107149190612528565b5050565b60086020528060005260406000206000915054906101000a900460ff1681565b600061074382610ca1565b9050919050565b600a805461075790612314565b80601f016020809104026020016040519081016040528092919081815260200182805461078390612314565b80156107d05780601f106107a5576101008083540402835291602001916107d0565b820191906000526020600020905b8154815290600101906020018083116107b357829003601f168201915b505050505081565b60008073ffffffffffffffffffffffffffffffffffffffff168273ffffffffffffffffffffffffffffffffffffffff160361084b5760006040517f89c62b640000000000000000000000000000000000000000000000000000000081526004016108429190611e66565b60405180910390fd5b600360008373ffffffffffffffffffffffffffffffffffffffff1673ffffffffffffffffffffffffffffffffffffffff168152602001908152602001600020549050919050565b60076020528060005260406000206000915090505481565b6108b2610f9a565b6108bc6000611021565b565b6000600660009054906101000a900473ffffffffffffffffffffffffffffffffffffffff16905090565b6060600180546108f790612314565b80601f016020809104026020016040519081016040528092919081815260200182805461092390612314565b80156109705780601f1061094557610100808354040283529160200191610970565b820191906000526020600020905b81548152906001019060200180831161095357829003601f168201915b5050505050905090565b61098c610985610d66565b83836110e7565b5050565b61099b8484846105db565b6109a784848484611256565b50505050565b60606109b882610ca1565b5060006109c361140d565b905060008151116109e35760405180602001604052806000815250610a0e565b806109ed8461149f565b6040516020016109fe929190612636565b6040516020818303038152906040525b915050919050565b60095481565b6000600560008473ffffffffffffffffffffffffffffffffffffffff1673ffffffffffffffffffffffffffffffffffffffff16815260200190815260200160002060008373ffffffffffffffffffffffffffffffffffffffff1673ffffffffffffffffffffffffffffffffffffffff16815260200190815260200160002060009054906101000a900460ff16905092915050565b610ab8610f9a565b600073ffffffffffffffffffffffffffffffffffffffff168173ffffffffffffffffffffffffffffffffffffffff1603610b2a5760006040517f1e4fbdf7000000000000000000000000000000000000000000000000000000008152600401610b219190611e66565b60405180910390fd5b610b3381611021565b50565b6001600760003373ffffffffffffffffffffffffffffffffffffffff1673ffffffffffffffffffffffffffffffffffffffff1681526020019081526020016000206000828254610b869190612689565b925050819055506064600760003373ffffffffffffffffffffffffffffffffffffffff1673ffffffffffffffffffffffffffffffffffffffff16815260200190815260200160002054148015610c265750600860003373ffffffffffffffffffffffffffffffffffffffff1673ffffffffffffffffffffffffffffffffffffffff16815260200190815260200160002060009054906101000a900460ff16155b15610c3557610c343361156d565b5b565b60007f01ffc9a7000000000000000000000000000000000000000000000000000000007bffffffffffffffffffffffffffffffffffffffffffffffffffffffff1916827bffffffffffffffffffffffffffffffffffffffffffffffffffffffff1916149050919050565b600080610cad83611634565b9050600073ffffffffffffffffffffffffffffffffffffffff168173ffffffffffffffffffffffffffffffffffffffff1603610d2057826040517f7e273289000000000000000000000000000000000000000000000000000000008152600401610d1791906120fa565b60405180910390fd5b80915050919050565b60006004600083815260200190815260200160002060009054906101000a900473ffffffffffffffffffffffffffffffffffffffff169050919050565b600033905090565b610d7b8383836001611671565b505050565b600080610d8c84611634565b9050600073ffffffffffffffffffffffffffffffffffffffff168373ffffffffffffffffffffffffffffffffffffffff1614610dce57610dcd818486611836565b5b600073ffffffffffffffffffffffffffffffffffffffff168173ffffffffffffffffffffffffffffffffffffffff1614610e5f57610e10600085600080611671565b6001600360008373ffffffffffffffffffffffffffffffffffffffff1673ffffffffffffffffffffffffffffffffffffffff168152602001908152602001600020600082825403925050819055505b600073ffffffffffffffffffffffffffffffffffffffff168573ffffffffffffffffffffffffffffffffffffffff1614610ee2576001600360008773ffffffffffffffffffffffffffffffffffffffff1673ffffffffffffffffffffffffffffffffffffffff168152602001908152602001600020600082825401925050819055505b846002600086815260200190815260200160002060006101000a81548173ffffffffffffffffffffffffffffffffffffffff021916908373ffffffffffffffffffffffffffffffffffffffff160217905550838573ffffffffffffffffffffffffffffffffffffffff168273ffffffffffffffffffffffffffffffffffffffff167fddf252ad1be2c89b69c2b068fc378daa952ba7f163c4a11628f55a4df523b3ef60405160405180910390a4809150509392505050565b610fa2610d66565b73ffffffffffffffffffffffffffffffffffffffff16610fc06108be565b73ffffffffffffffffffffffffffffffffffffffff161461101f57610fe3610d66565b6040517f118cdaa70000000000000000000000000000000000000000000000000000000081526004016110169190611e66565b60405180910390fd5b565b6000600660009054906101000a900473ffffffffffffffffffffffffffffffffffffffff16905081600660006101000a81548173ffffffffffffffffffffffffffffffffffffffff021916908373ffffffffffffffffffffffffffffffffffffffff1602179055508173ffffffffffffffffffffffffffffffffffffffff168173ffffffffffffffffffffffffffffffffffffffff167f8be0079c531659141344cd1fd0a4f28419497f9722a3daafe3b4186f6b6457e060405160405180910390a35050565b600073ffffffffffffffffffffffffffffffffffffffff168273ffffffffffffffffffffffffffffffffffffffff160361115857816040517f5b08ba1800000000000000000000000000000000000000000000000000000000815260040161114f9190611e66565b60405180910390fd5b80600560008573ffffffffffffffffffffffffffffffffffffffff1673ffffffffffffffffffffffffffffffffffffffff16815260200190815260200160002060008473ffffffffffffffffffffffffffffffffffffffff1673ffffffffffffffffffffffffffffffffffffffff16815260200190815260200160002060006101000a81548160ff0219169083151502179055508173ffffffffffffffffffffffffffffffffffffffff168373ffffffffffffffffffffffffffffffffffffffff167f17307eab39ab6107e8899845ad3d59bd9653f200f220920489ca2b5937696c31836040516112499190611cf5565b60405180910390a3505050565b60008373ffffffffffffffffffffffffffffffffffffffff163b1115611407578273ffffffffffffffffffffffffffffffffffffffff1663150b7a0261129a610d66565b8685856040518563ffffffff1660e01b81526004016112bc9493929190612712565b6020604051808303816000875af19250505080156112f857506040513d601f19601f820116820180604052508101906112f59190612773565b60015b61137c573d8060008114611328576040519150601f19603f3d011682016040523d82523d6000602084013e61132d565b606091505b50600081510361137457836040517f64a0ae9200000000000000000000000000000000000000000000000000000000815260040161136b9190611e66565b60405180910390fd5b805181602001fd5b63150b7a0260e01b7bffffffffffffffffffffffffffffffffffffffffffffffffffffffff1916817bffffffffffffffffffffffffffffffffffffffffffffffffffffffff19161461140557836040517f64a0ae920000000000000000000000000000000000000000000000000000000081526004016113fc9190611e66565b60405180910390fd5b505b50505050565b6060600a805461141c90612314565b80601f016020809104026020016040519081016040528092919081815260200182805461144890612314565b80156114955780601f1061146a57610100808354040283529160200191611495565b820191906000526020600020905b81548152906001019060200180831161147857829003601f168201915b5050505050905090565b6060600060016114ae846118fa565b01905060008167ffffffffffffffff8111156114cd576114cc611f4a565b5b6040519080825280601f01601f1916602001820160405280156114ff5781602001600182028036833780820191505090505b509050600082602001820190505b600115611562578080600190039150507f3031323334353637383961626364656600000000000000000000000000000000600a86061a8153600a8581611556576115556127a0565b5b0494506000850361150d575b819350505050919050565b6001600960008282546115809190612689565b9250508190555061159381600954611a4d565b6001600860008373ffffffffffffffffffffffffffffffffffffffff1673ffffffffffffffffffffffffffffffffffffffff16815260200190815260200160002060006101000a81548160ff0219169083151502179055506009548173ffffffffffffffffffffffffffffffffffffffff167f7eddff5a1ce4e74e865f1baf65738c6792cfcbf11ab89d8ad2703d348b35d8b660405160405180910390a350565b60006002600083815260200190815260200160002060009054906101000a900473ffffffffffffffffffffffffffffffffffffffff169050919050565b80806116aa5750600073ffffffffffffffffffffffffffffffffffffffff168273ffffffffffffffffffffffffffffffffffffffff1614155b156117de5760006116ba84610ca1565b9050600073ffffffffffffffffffffffffffffffffffffffff168373ffffffffffffffffffffffffffffffffffffffff161415801561172557508273ffffffffffffffffffffffffffffffffffffffff168173ffffffffffffffffffffffffffffffffffffffff1614155b801561173857506117368184610a1c565b155b1561177a57826040517fa9fbf51f0000000000000000000000000000000000000000000000000000000081526004016117719190611e66565b60405180910390fd5b81156117dc57838573ffffffffffffffffffffffffffffffffffffffff168273ffffffffffffffffffffffffffffffffffffffff167f8c5be1e5ebec7d5bd14f71427d1e84f3dd0314c0f7b2291e5b200ac8c7c3b92560405160405180910390a45b505b836004600085815260200190815260200160002060006101000a81548173ffffffffffffffffffffffffffffffffffffffff021916908373ffffffffffffffffffffffffffffffffffffffff16021790555050505050565b611841838383611a6b565b6118f557600073ffffffffffffffffffffffffffffffffffffffff168373ffffffffffffffffffffffffffffffffffffffff16036118b657806040517f7e2732890000000000000000000000000000000000000000000000000000000081526004016118ad91906120fa565b60405180910390fd5b81816040517f177e802f0000000000000000000000000000000000000000000000000000000081526004016118ec9291906127cf565b60405180910390fd5b505050565b600080600090507a184f03e93ff9f4daa797ed6e38ed64bf6a1f0100000000000000008310611958577a184f03e93ff9f4daa797ed6e38ed64bf6a1f010000000000000000838161194e5761194d6127a0565b5b0492506040810190505b6d04ee2d6d415b85acef81000000008310611995576d04ee2d6d415b85acef8100000000838161198b5761198a6127a0565b5b0492506020810190505b662386f26fc1000083106119c457662386f26fc1000083816119ba576119b96127a0565b5b0492506010810190505b6305f5e10083106119ed576305f5e10083816119e3576119e26127a0565b5b0492506008810190505b6127108310611a12576127108381611a0857611a076127a0565b5b0492506004810190505b60648310611a355760648381611a2b57611a2a6127a0565b5b0492506002810190505b600a8310611a44576001810190505b80915050919050565b611a67828260405180602001604052806000815250611b2c565b5050565b60008073ffffffffffffffffffffffffffffffffffffffff168373ffffffffffffffffffffffffffffffffffffffff1614158015611b2357508273ffffffffffffffffffffffffffffffffffffffff168473ffffffffffffffffffffffffffffffffffffffff161480611ae45750611ae38484610a1c565b5b80611b2257508273ffffffffffffffffffffffffffffffffffffffff16611b0a83610d29565b73ffffffffffffffffffffffffffffffffffffffff16145b5b90509392505050565b611b368383611b48565b611b436000848484611256565b505050565b600073ffffffffffffffffffffffffffffffffffffffff168273ffffffffffffffffffffffffffffffffffffffff1603611bba5760006040517f64a0ae92000000000000000000000000000000000000000000000000000000008152600401611bb19190611e66565b60405180910390fd5b6000611bc883836000610d80565b9050600073ffffffffffffffffffffffffffffffffffffffff168173ffffffffffffffffffffffffffffffffffffffff1614611c3c5760006040517f73c6ac6e000000000000000000000000000000000000000000000000000000008152600401611c339190611e66565b60405180910390fd5b505050565b6000604051905090565b600080fd5b600080fd5b60007fffffffff0000000000000000000000000000000000000000000000000000000082169050919050565b611c8a81611c55565b8114611c9557600080fd5b50565b600081359050611ca781611c81565b92915050565b600060208284031215611cc357611cc2611c4b565b5b6000611cd184828501611c98565b91505092915050565b60008115159050919050565b611cef81611cda565b82525050565b6000602082019050611d0a6000830184611ce6565b92915050565b600081519050919050565b600082825260208201905092915050565b60005b83811015611d4a578082015181840152602081019050611d2f565b60008484015250505050565b6000601f19601f8301169050919050565b6000611d7282611d10565b611d7c8185611d1b565b9350611d8c818560208601611d2c565b611d9581611d56565b840191505092915050565b60006020820190508181036000830152611dba8184611d67565b905092915050565b6000819050919050565b611dd581611dc2565b8114611de057600080fd5b50565b600081359050611df281611dcc565b92915050565b600060208284031215611e0e57611e0d611c4b565b5b6000611e1c84828501611de3565b91505092915050565b600073ffffffffffffffffffffffffffffffffffffffff82169050919050565b6000611e5082611e25565b9050919050565b611e6081611e45565b82525050565b6000602082019050611e7b6000830184611e57565b92915050565b611e8a81611e45565b8114611e9557600080fd5b50565b600081359050611ea781611e81565b92915050565b60008060408385031215611ec457611ec3611c4b565b5b6000611ed285828601611e98565b9250506020611ee385828601611de3565b9150509250929050565b600080600060608486031215611f0657611f05611c4b565b5b6000611f1486828701611e98565b9350506020611f2586828701611e98565b9250506040611f3686828701611de3565b9150509250925092565b600080fd5b600080fd5b7f4e487b7100000000000000000000000000000000000000000000000000000000600052604160045260246000fd5b611f8282611d56565b810181811067ffffffffffffffff82111715611fa157611fa0611f4a565b5b80604052505050565b6000611fb4611c41565b9050611fc08282611f79565b919050565b600067ffffffffffffffff821115611fe057611fdf611f4a565b5b611fe982611d56565b9050602081019050919050565b82818337600083830152505050565b600061201861201384611fc5565b611faa565b90508281526020810184848401111561203457612033611f45565b5b61203f848285611ff6565b509392505050565b600082601f83011261205c5761205b611f40565b5b813561206c848260208601612005565b91505092915050565b60006020828403121561208b5761208a611c4b565b5b600082013567ffffffffffffffff8111156120a9576120a8611c50565b5b6120b584828501612047565b91505092915050565b6000602082840312156120d4576120d3611c4b565b5b60006120e284828501611e98565b91505092915050565b6120f481611dc2565b82525050565b600060208201905061210f60008301846120eb565b92915050565b61211e81611cda565b811461212957600080fd5b50565b60008135905061213b81612115565b92915050565b6000806040838503121561215857612157611c4b565b5b600061216685828601611e98565b92505060206121778582860161212c565b9150509250929050565b600067ffffffffffffffff82111561219c5761219b611f4a565b5b6121a582611d56565b9050602081019050919050565b60006121c56121c084612181565b611faa565b9050828152602081018484840111156121e1576121e0611f45565b5b6121ec848285611ff6565b509392505050565b600082601f83011261220957612208611f40565b5b81356122198482602086016121b2565b91505092915050565b6000806000806080858703121561223c5761223b611c4b565b5b600061224a87828801611e98565b945050602061225b87828801611e98565b935050604061226c87828801611de3565b925050606085013567ffffffffffffffff81111561228d5761228c611c50565b5b612299878288016121f4565b91505092959194509250565b600080604083850312156122bc576122bb611c4b565b5b60006122ca85828601611e98565b92505060206122db85828601611e98565b9150509250929050565b7f4e487b7100000000000000000000000000000000000000000000000000000000600052602260045260246000fd5b6000600282049050600182168061232c57607f821691505b60208210810361233f5761233e6122e5565b5b50919050565b600060608201905061235a6000830186611e57565b61236760208301856120eb565b6123746040830184611e57565b949350505050565b60008190508160005260206000209050919050565b60006020601f8301049050919050565b600082821b905092915050565b6000600883026123de7fffffffffffffffffffffffffffffffffffffffffffffffffffffffffffffffff826123a1565b6123e886836123a1565b95508019841693508086168417925050509392505050565b6000819050919050565b600061242561242061241b84611dc2565b612400565b611dc2565b9050919050565b6000819050919050565b61243f8361240a565b61245361244b8261242c565b8484546123ae565b825550505050565b600090565b61246861245b565b612473818484612436565b505050565b5b818110156124975761248c600082612460565b600181019050612479565b5050565b601f8211156124dc576124ad8161237c565b6124b684612391565b810160208510156124c5578190505b6124d96124d185612391565b830182612478565b50505b505050565b600082821c905092915050565b60006124ff600019846008026124e1565b1980831691505092915050565b600061251883836124ee565b9150826002028217905092915050565b61253182611d10565b67ffffffffffffffff81111561254a57612549611f4a565b5b6125548254612314565b61255f82828561249b565b600060209050601f8311600181146125925760008415612580578287015190505b61258a858261250c565b8655506125f2565b601f1984166125a08661237c565b60005b828110156125c8578489015182556001820191506020850194506020810190506125a3565b868310156125e557848901516125e1601f8916826124ee565b8355505b6001600288020188555050505b505050505050565b600081905092915050565b600061261082611d10565b61261a81856125fa565b935061262a818560208601611d2c565b80840191505092915050565b60006126428285612605565b915061264e8284612605565b91508190509392505050565b7f4e487b7100000000000000000000000000000000000000000000000000000000600052601160045260246000fd5b600061269482611dc2565b915061269f83611dc2565b92508282019050808211156126b7576126b661265a565b5b92915050565b600081519050919050565b600082825260208201905092915050565b60006126e4826126bd565b6126ee81856126c8565b93506126fe818560208601611d2c565b61270781611d56565b840191505092915050565b60006080820190506127276000830187611e57565b6127346020830186611e57565b61274160408301856120eb565b818103606083015261275381846126d9565b905095945050505050565b60008151905061276d81611c81565b92915050565b60006020828403121561278957612788611c4b565b5b60006127978482850161275e565b91505092915050565b7f4e487b7100000000000000000000000000000000000000000000000000000000600052601260045260246000fd5b60006040820190506127e46000830185611e57565b6127f160208301846120eb565b939250505056fea264697066735822122051ea7b14ec4d54fa9994a3ac405b0427a13cfc8b143d4c31dfc98170cca65aad64736f6c63430008140033",
    "linkReferences": {},
    "deployedLinkReferences": {}
}